:100000000C945E000C949E050C9477050C9486006D
:100010000C9486000C9486000C9486000C94860048
:100020000C9486000C9486000C9486000C94860038
:100030000C9486000C9486000C9486000C94860028
:100040000C942D050C9486000C94FB040C94D504A0
:100050000C9486000C9486000C9486000C94860008
:100060000C9486000C948600000000080002010039
:100070000003040700000000000000000000000072
:10008000250028002B0000000000240027002A0083
:10009000040404040404040402020202020203032E
:1000A0000303030301020408102040800102040836
:1000B0001020010204081020C505B60811241FBE37
:1000C000CFEFD8E0DEBFCDBF22E0A8E1B2E001C0B3
:1000D0001D92A03FB207E1F712E0A0E0B1E0EEE62A
:1000E000F9E102C005900D92A831B107D9F710E0EF
:1000F000CDE5D0E004C02197FE010E94A90ACC35CD
:10010000D107C9F70E9430060C94AA0C0C94000089
:1001100090E0FC01EC55FF4F249180579F4FFC016C
:100120008491882399F090E0880F991FFC01EA5789
:10013000FF4FA591B491FC01E458FF4F8591949134
:100140008FB7F894EC91E22BEC938FBF08958091D8
:100150001802909119028530910534F4019690931C
:100160001902809318020895109219021092180231
:1001700008950895AF92BF92CF92DF92EF92FF92CF
:100180000F931F93CF93DF936C017B018B01040FBF
:10019000151FEB015E01AE18BF08C017D10759F05B
:1001A0006991D601ED91FC910190F081E02DC6019D
:1001B0000995892B79F7C501DF91CF911F910F9197
:1001C000FF90EF90DF90CF90BF90AF900895FC012B
:1001D000538D448D252F30E0842F90E0821B930BAC
:1001E000541710F0CF96089501970895FC01918D52
:1001F000828D981761F0A28DAE0FBF2FB11D5D9655
:100200008C91928D9F5F9F73928F90E008958FEFF6
:100210009FEF0895FC01918D828D981731F0828DAA
:10022000E80FF11D858D90E008958FEF9FEF089501
:10023000FC01918D228D892F90E0805C9F4F821B65
:1002400091098F739927089583E292E00E94180123
:1002500021E0892B09F420E0822F089580E090E0CE
:10026000892B29F00E94240181110C94000008952B
:10027000FC01A48DA80FB92FB11DA35ABF4F2C911B
:10028000848D90E001968F739927848FA689B78912
:100290002C93A089B1898C91837080648C93938D09
:1002A000848D981306C00288F389E02D80818F7DAC
:1002B00080830895EF92FF920F931F93CF93DF9364
:1002C000EC0181E0888F9B8D8C8D98131AC0E88992
:1002D000F989808185FF15C09FB7F894EE89FF8961
:1002E0006083E889F98980818370806480839FBFFF
:1002F00081E090E0DF91CF911F910F91FF90EF90FF
:100300000895F62E0B8D10E00F5F1F4F0F7311270E
:10031000E02E8C8D8E110CC00FB607FCFACFE88949
:10032000F989808185FFF5CFCE010E943801F1CF98
:10033000EB8DEC0FFD2FF11DE35AFF4FF0829FB7BD
:10034000F8940B8FEA89FB8980818062CFCFCF93AD
:10035000DF93EC01888D8823B9F0AA89BB89E889ED
:10036000F9898C9185FD03C0808186FD0DC00FB693
:1003700007FCF7CF8C9185FFF2CF808185FFEDCF11
:10038000CE010E943801E9CFDF91CF91089590E02E
:10039000FC01E859FF4F2491FC01EC55FF4F3491CB
:1003A000FC01E057FF4FE491EE23C9F0222339F01E
:1003B000233001F1A8F4213019F1223029F1F0E0C5
:1003C000EE0FFF1FE458FF4FA591B4918FB7F8943B
:1003D000EC91611126C030953E233C938FBF089568
:1003E0002730A9F02830C9F0243049F780918000E7
:1003F0008F7D03C0809180008F7780938000DFCF56
:1004000084B58F7784BDDBCF84B58F7DFBCF8091A2
:10041000B0008F778093B000D2CF8091B0008F7DF5
:10042000F9CF3E2BDACF3FB7F89480911F0290911D
:100430002002A0912102B091220226B5A89B05C0FE
:100440002F3F19F00196A11DB11D3FBFBA2FA92F53
:10045000982F8827BC01CD01620F711D811D911D50
:1004600042E0660F771F881F991F4A95D1F70895BC
:100470008F929F92AF92BF92CF92DF92EF92FF92B4
:100480004B015C010E9413026B017C010E9413026C
:100490006C197D098E099F09683E7340810591059D
:1004A000A8F321E0821A9108A108B10888EEC80ECD
:1004B00083E0D81EE11CF11C81149104A104B10455
:1004C00029F7FF90EF90DF90CF90BF90AF909F9073
:1004D0008F900895089590E080E00895CF93DF9382
:1004E000EC0160E08E810E94C70161E08E810E9474
:1004F000C70160E08E810E94C7018BE891E00197FF
:10050000F1F7DF91CF910895CF92DF92EF92FF92B2
:100510000F931F93CF93DF936C017C0187E0E80E6C
:10052000F11CD0E0C0E0062F10E0B8010C2E02C094
:10053000759567950A94E2F76170F70181917F01E3
:100540000E94C7012196C430D10579F7C601DF9119
:10055000CF911F910F91FF90EF90DF90CF900C946F
:100560006E02CF92DF92EF92FF920F931F93CF9381
:10057000DF93EC01F62E642F8C810E94C7018D81E0
:100580008F3F19F060E00E94C7010F2D10E08F85AA
:1005900084FF25C06E0187E0C80ED11CF12CE12C30
:1005A000B8010E2C02C0759567950A94E2F7617048
:1005B000F60181916F010E94C701FFEFEF1AFF0A58
:1005C00088E0E816F10461F7CE01DF91CF911F9129
:1005D0000F91FF90EF90DF90CF900C946E02B801D6
:1005E00084E0759567958A95E1F7CE010E948402B3
:1005F0006F2DCE01DF91CF911F910F91FF90EF9062
:10060000DF90CF900C94840240E0682F82ED92E05E
:100610000C94B10281E00E9404038BE39FE10197F7
:10062000F1F70895CF93DF93823029F49091E1029E
:1006300098609093E1028093E5021092E60280E4D4
:100640008093E70280E18093E80280E58093E902ED
:100650008091D6020E9488008091D7028F3F11F0CE
:100660000E9488008091D8020E948800C2EDD2E0EA
:100670009E01225D32408091E10284FD0AC084E047
:1006800090E02196281739073CF48E810E9488005B
:10069000EFCF88E090E0F5CF8BE39DE00197F1F795
:1006A00060E08091D6020E94C70160E08091D8028C
:1006B0000E94C7018091D7028F3F19F060E00E942D
:1006C000C7018091E10284FD34C063E082ED92E0D5
:1006D0000E948402CBE4D6E4CE010197F1F763E0F7
:1006E00082ED92E00E9484022197F1F763E082EDAF
:1006F00092E00E94840283E592E00197F1F762E0C4
:1007000082ED92E00E9484028091E10280620E9468
:10071000040384E08093E2028CE00E9404030E94C0
:100720000A0382E08093E30286E0DF91CF910C948C
:10073000040380620E9404038BE496E40197F1F7BE
:100740008091E10280620E94040383E592E00197B8
:10075000F1F78091E10280620E940403D5CF90916D
:10076000E502691710F06FEF690FE62FF0E0EE5227
:10077000FD4F9489890F80680C94040341E00E9426
:10078000B10281E090E00895FB0101900020E9F7BB
:100790003197AF01461B570BDC01ED91FC910280B4
:1007A000F381E02D0994BC0182ED92E00C94C40326
:1007B000CF93DF93BC0183E292E00E94C403EC017B
:1007C00068E271E083E292E00E94C4038C0F9D1FF7
:1007D000DF91CF910895CF93DF93EC0188819981C8
:1007E000009711F00E944B0B198218821D821C8207
:1007F0001B821A82DF91CF910895FC018081918143
:10080000009711F00C944B0B08950F931F93CF9307
:10081000DF93EC0188819981009759F02A813B810F
:100820002617370730F081E0DF91CF911F910F91AC
:1008300008958B016F5F7F4F0E94D40B009759F092
:10084000998388831B830A832C813D81232B59F74D
:10085000FC011082E8CF80E0E7CFEF92FF920F9388
:100860001F93CF93DF93EC017B018A01BA010E94B1
:10087000050481110BC0CE010E94EB03CE01DF9174
:10088000CF911F910F91FF90EF9008951D830C83DE
:10089000B701888199810E94A30CF0CF50E040E01D
:1008A0006AE271E00C942D04FB0101900020E9F74D
:1008B0003197AF01461B570B0C942D04CF93DF9358
:1008C000EC01FB018617970749F060817181611582
:1008D000710541F0448155810E942D04CE01DF91C4
:1008E000CF9108950E94EB03F9CF0F931F93CF93FD
:1008F000DF93CDB7DEB728970FB6F894DEBF0FBEF3
:10090000CDBF6AE271E08CEC92E00E94540483E275
:1009100092E00E94180118161906E4F583E292E0AD
:100920000E94F600182F1A8219821C821B821E82D6
:100930001D826CEC72E0CE0101960E945E041F8362
:1009400018860D811E810F5F1F4FB801CE010196E1
:100950000E9405048823C9F029813A818D819E81F6
:10096000BE01695F7F4F820F931F0E94A30C1E83FD
:100970000D83BE016F5F7F4F8CEC92E00E945E049E
:10098000CE0101960E94FD03C2CFCE0101960E94C6
:10099000EB03EFCF28960FB6F894DEBF0FBECDBFA6
:1009A000DF91CF911F910F9108951F920F920FB673
:1009B0000F9211242F933F934F935F936F937F93E5
:1009C0008F939F93AF93BF93EF93FF9383E292E054
:1009D0000E943801FF91EF91BF91AF919F918F914C
:1009E0007F916F915F914F913F912F910F900FBE2B
:1009F0000F901F9018951F920F920FB60F9211240F
:100A00002F938F939F93EF93FF93E0913302F09195
:100A100034028081E0913902F0913A0282FD1BC0DC
:100A2000908180913C028F5F8F7320913D028217ED
:100A300041F0E0913C02F0E0ED5DFD4F958F809339
:100A40003C02FF91EF919F918F912F910F900FBEDC
:100A50000F901F9018958081F4CF1F920F920FB6C0
:100A60000F9211242F933F938F939F93AF93BF9334
:100A700080911B0290911C02A0911D02B0911E0258
:100A800030911A0223E0230F2D3758F50196A11D4E
:100A9000B11D20931A0280931B0290931C02A09315
:100AA0001D02B0931E0280911F0290912002A0911E
:100AB0002102B09122020196A11DB11D80931F0257
:100AC00090932002A0932102B0932202BF91AF9194
:100AD0009F918F913F912F910F900FBE0F901F907C
:100AE000189526E8230F0296A11DB11DD2CF1F92A3
:100AF0000F920FB60F9211242F933F934F935F9352
:100B00006F937F938F939F93AF93BF93EF93FF93D5
:100B1000E0910201F09103010995FF91EF91BF91DE
:100B2000AF919F918F917F916F915F914F913F9185
:100B30002F910F900FBE0F901F9018951F920F923C
:100B40000FB60F9211242F933F934F935F936F93A0
:100B50007F938F939F93AF93BF93EF93FF93E09116
:100B60000001F09101010995FF91EF91BF91AF91C3
:100B70009F918F917F916F915F914F913F912F91B5
:100B80000F900FBE0F901F901895E3E2F2E01382D2
:100B9000128288EE93E0A0E0B0E084839583A68380
:100BA000B7838EE091E09183808385EC90E0958718
:100BB000848784EC90E09787868780EC90E0918B27
:100BC000808B81EC90E0938B828B82EC90E0958B14
:100BD000848B86EC90E0978B868B118E128E138E11
:100BE000148EE2EDF2E01382128280E291E09183B2
:100BF000808383E084838FEF858384E0868385E030
:100C0000878386E0808787E0818788E082871386F4
:100C1000148615861686178681E00E941203ECEC76
:100C2000F2E0118210821382128215821482CF01A7
:100C30000E944E04E6ECF2E01182108213821282CE
:100C400015821482CF010E944E04E0ECF2E0118282
:100C500010821382128215821482CF010C944E04EA
:100C6000CF93DF93CDB7DEB7A8970FB6F894DEBF6A
:100C70000FBECDBF789484B5826084BD84B5816099
:100C800084BD85B5826085BD85B5816085BD809157
:100C90006E00816080936E001092810080918100CF
:100CA00082608093810080918100816080938100C7
:100CB000809180008160809380008091B100846089
:100CC0008093B1008091B00081608093B0008091EA
:100CD0007A00846080937A0080917A0082608093A9
:100CE0007A0080917A00816080937A0080917A0006
:100CF000806880937A001092C10087EA90E0909318
:100D000001018093000180916900836080936900F4
:100D1000E89A82E00E94120360E080E00E94AF0344
:100D20008BE291E00E94D30361E080E00E94AF0378
:100D30008AE391E00E94D30360ED77E080E090E0E9
:100D40000E9438020E940A0392E0F92E23E3E22E69
:100D500036E0D32E60E080E00E94AF0385E491E0AE
:100D60000E94D30361E080E00E94AF038AE591E036
:100D70000E94D303E0913302F0913402F082E091BB
:100D80002F02F09130021082E0913102F091320294
:100D9000E08210923B02E0913702F0913802D0825B
:100DA000E0913502F0913602808180618083E0918C
:100DB0003502F0913602808188608083E0913502AF
:100DC000F0913602808180688083E0913502F09155
:100DD000360280818F7D80838FE691E00E94D80368
:100DE00060E080E00E94AF0383E791E00E94D303BC
:100DF00060ED77E080E090E00E9438020E94750488
:100E00001A8219821C821B821E821D82CE010196CB
:100E10000E944E040091D0021091D10202301105BF
:100E200018F10230110511F003E010E0E091CC025E
:100E3000F091CD02E00FF11FC08010826091CC02D2
:100E40007091CD026F5F7F4FCE01019661157105E4
:100E500009F44FC10E9454048091CC029091CD02BC
:100E6000080F191FF801C0828D819E81892B49F0DE
:100E700060E771E089819A810E949A0C11E0892BC8
:100E800009F010E0CE0101960E94FD03112309F440
:100E900033C10E940A0360E080E00E94AF0381E852
:100EA00091E00E94D30360E089E00E94AF0361E01B
:100EB00080E00E94AF0389E891E00E94D3036CEDCB
:100EC00075E080E090E00E9438020E940A0380EA08
:100ED00091E00E94D80360E080E00E94AF0385EAC1
:100EE00091E00E94D30360EA7FE080E090E00E94FE
:100EF00038020E94750460E080E00E94AF0386EB38
:100F000091E00E94D30368EE73E080E090E00E94DD
:100F100038020E940A0380E0E82E80E0F82E60E0AC
:100F200080E00E94AF0382EF91E00E94D3036AE267
:100F300071E08CEC92E00E94540483E092E00E9405
:100F4000D80368EE73E080E090E00E9438020E94CF
:100F500075041A8219821C821B821E821D82CE0198
:100F600001960E944E040091D0021091D1020C30E3
:100F7000110518F10C30110511F00DE010E0E091B1
:100F8000CC02F091CD02E00FF11FD0801082609171
:100F9000CC027091CD02655F7F4FCE010196611545
:100FA000710509F4C2C00E9454048091CC02909152
:100FB000CD02080F191FF801D0828091C0029091D4
:100FC000C102009709F4B6C069817A816115710583
:100FD00009F4AEC04091C2025091C3022D813E81FE
:100FE0004217530708F4A4C00E94A30C8D819E8170
:100FF0009093C5028093C4021E821D82CE01019689
:101000000E94FD0340E150E070E060E08091C0028A
:101010009091C1020E94C2081CA21BA21EA21DA286
:1010200018A61FA268527109810991092AE0AE0130
:101030004F5F5F4F0E94E209BE016F5F7F4FCE019D
:1010400083960E9454041A8219821C821B821E827B
:101050001D82BE016D5D7F4FCE0101960E945E0430
:101060000D811E81025F1F4FB801CE0101960E94C3
:101070000504882309F475C029813A818D819E81F8
:1010800068E072E0820F931F0E94A30C1E830D8301
:10109000BE016F5F7F4F86EC92E00E945E04CE013E
:1010A00001960E94FD03CE0183960E94FD0361E03C
:1010B00080E00E94AF034091CA025091CB02609140
:1010C000C6027091C70282ED92E00E94BA0064EFFE
:1010D00071E080E090E00E943802E114F10409F42C
:1010E0001ECF0E942401882309F419CF0E9400001A
:1010F00016CF0E94EB03B0CE60E080E00E94AF0309
:1011000087EC91E00E94D30361E080E00E94AF038E
:101110008AED91E00E94D3036CED75E080E090E0F1
:101120000E9438020E940A0315CE0E94EB033DCFB5
:101130000E944B0B89819A819093C1028093C002D7
:101140008B819C819093C3028093C2028D819E818A
:101150009093C5028093C4021A8219821C821B825A
:101160004BCFCE0101960E94EB0392CF80EC92E030
:101170000E94FD0386EC92E00E94FD038CEC92E05D
:101180000C94FD03B0E0A0E0E8ECF8E00C94640AF5
:101190005C016B017A016115710519F0FB01918306
:1011A0008083E114F10451F0C7010297839730F076
:1011B00040E030E020E090E072C05E01E501219661
:1011C000F5011081812F90E00E94D909892BA9F7A0
:1011D0001D3201F52196F501118101E0E114F104C0
:1011E00009F4DAC0F0E1EF16F10409F082C010331F
:1011F00059F488818F7D883509F076C0198122964F
:101200000260F0E1EF2EF12C812C912CA12C88E0D2
:10121000B82E8CC01B3221F4E5012296F501118114
:1012200000E0DCCFEAE0EE16F10409F4BBC0F0E127
:10123000EF16F10409F06DC0E7CF78E0E72EF12C4E
:10124000812C912CA12C60E1B62E70C03FE9310FAA
:101250003A3128F439EA332E80C021E09AC0302F89
:101260003170C114D10431F0222309F12197F60124
:10127000D183C08327FF21C060E070E080E090E868
:10128000311104C06FEF7FEF8FEF9FE722E230E074
:101290003093EB022093EA02462F372F282F642F3A
:1012A000732F822FCDB7DEB7E1E10C94800A01FFE6
:1012B00004C02297F601D183C083332341F0909577
:1012C0008095709561957F4F8F4F9F4FE5CF97FF2A
:1012D000E3CF82E290E09093EB028093EA026FEF1B
:1012E0007FEF8FEF9FE7D8CF10E3E114F10409F40B
:1012F000A4CF28E0E216F10409F4A2CF0CF092CFBB
:10130000812C912CA12CE0E4BE2E82E0E816F104A1
:1013100069F060E070E080E090E897010F2C000C2D
:10132000440B550B0E94360A49015A0120E060E047
:1013300070E0CB0127010F2C000C66087708FE0136
:1013400050ED352E310E39E0331540F43FEB310FBF
:101350003A3108F07BCF49EC342E310E3E141F0495
:101360000CF07DCF27FD15C086169706A806B90696
:1013700078F0A30192010E94260A630D711D811D60
:10138000911D61307105810520E8920708F465CF51
:101390002FEF21961081D3CF103309F42ACF2AE002
:1013A000E22EF12C9CEC892E982CA82C9CE0B92ED6
:1013B000BDCF91110C94130A803219F089508550D9
:1013C000C8F70895BB272A3051F4992342F4BDE2AF
:1013D00090958095709561957F4F8F4F9F4F0C949E
:1013E000F209BB27FA01A62F621771058105910545
:1013F000330B30FB66F0AA27660F771F881F991FF3
:10140000AA1FA21710F0A21B63953850A9F7A05D80
:10141000AA3308F0A95DA19336F7B111B1931082F8
:10142000CA010C94160A992788270895DC01FC014B
:10143000672F71917723E1F7329704C07C916D9308
:1014400070836291AE17BF07C8F30895DB018F93D5
:101450009F930E94580ABF91AF91A29F800D911D4A
:10146000A39F900DB29F900D11240895A1E21A2E12
:10147000AA1BBB1BFD010DC0AA1FBB1FEE1FFF1F38
:10148000A217B307E407F50720F0A21BB30BE40B88
:10149000F50B661F771F881F991F1A9469F76095CF
:1014A0007095809590959B01AC01BD01CF01089589
:1014B0000E949A0AA59F900DB49F900DA49F800D45
:1014C000911D112408952F923F924F925F926F9237
:1014D0007F928F929F92AF92BF92CF92DF92EF92C4
:1014E000FF920F931F93CF93DF93CDB7DEB7CA1B45
:1014F000DB0B0FB6F894DEBF0FBECDBF09942A8870
:10150000398848885F846E847D848C849B84AA8417
:10151000B984C884DF80EE80FD800C811B81AA81A4
:10152000B981CE0FD11D0FB6F894DEBF0FBECDBF6F
:10153000ED010895A29FB001B39FC001A39F700D5C
:10154000811D1124911DB29F700D811D1124911DCB
:101550000895EE0FFF1F0590F491E02D09940F936D
:101560001F93CF93DF938230910510F482E090E0D7
:10157000E091EE02F091EF0230E020E0B0E0A0E078
:10158000309799F42115310509F44AC0281B390B0D
:1015900024303105D8F58A819B816115710589F167
:1015A000FB0193838283FE0111C04081518102813E
:1015B000138148175907E0F04817590799F4109715
:1015C00061F012960C93129713961C933296CF01EA
:1015D000DF91CF911F910F9108950093EE02109328
:1015E000EF02F4CF2115310551F04217530738F0BF
:1015F000A901DB019A01BD01DF01F801C1CFEF01B3
:10160000F9CF9093EF028093EE02CDCFFE01E20F6F
:10161000F31F819391932250310939832883D7CFC7
:101620002091EC023091ED02232B41F42091060130
:10163000309107013093ED022093EC0220910401D8
:10164000309105012115310541F42DB73EB7409188
:10165000080150910901241B350BE091EC02F09137
:10166000ED02E217F307A0F42E1B3F0B28173907F2
:1016700078F0AC014E5F5F4F2417350748F04E0FEE
:101680005F1F5093ED024093EC02819391939FCFA3
:10169000F0E0E0E09CCFCF93DF930097E9F0FC010E
:1016A000329713821282A091EE02B091EF02ED0107
:1016B00030E020E01097A1F420813181820F931F48
:1016C0002091EC023091ED022817390709F061C032
:1016D000F093ED02E093EC02DF91CF910895EA01DF
:1016E000CE17DF07E8F54A815B819E014115510560
:1016F000B1F7E901FB83EA8349915991C40FD51FE2
:10170000EC17FD0761F4808191810296840F951F8B
:10171000E90199838883828193819B838A83F0E0A6
:10172000E0E012968D919C9113970097B9F52D9159
:101730003C911197CD010296820F931F2091EC02EC
:101740003091ED022817390739F6309751F510928C
:10175000EF021092EE02B093ED02A093EC02BCCF28
:10176000D383C28340815181840F951FC817D90745
:1017700061F44E5F5F4F88819981480F591F5183F3
:1017800040838A819B81938382832115310509F0EF
:10179000B0CFF093EF02E093EE029ECFFD01DC01AB
:1017A000C0CF13821282D7CFB0E0A0E0EAEDFBE019
:1017B0000C94650A8C01009751F4CB010E94AF0A8A
:1017C0008C01C801CDB7DEB7E0E10C94810AFC01C1
:1017D000E60FF71F9C0122503109E217F30708F4C6
:1017E0009DC0D901CD91DC911197C617D70798F00C
:1017F000C530D10530F3CE0104978617970708F35B
:10180000C61BD70B2297C193D1936D937C93CF01C5
:101810000E944B0BD6CF5B01AC1ABD0A4C018C0E5B
:101820009D1EA091EE02B091EF02512C412CF12CA3
:10183000E12C109731F58091EC029091ED02881522
:10184000990509F05CC04616570608F058C080910B
:10185000040190910501009741F48DB79EB7409126
:10186000080150910901841B950BE817F90708F04E
:1018700055C0F093ED02E093EC02F90171836083AF
:10188000A0CF8D919C91119712966C901297139600
:101890007C901397A815B90559F56C0142E0C40E68
:1018A000D11CCA14DB0420F1AC014A195B09DA012E
:1018B0001296159780F06282738251834083D9011A
:1018C0006D937C93E114F10471F0D7011396FC93AE
:1018D000EE93129776CF22968C0F9D1FF90191837C
:1018E0008083F301EFCFF093EF02E093EE0269CF34
:1018F0004816590608F42C017D01D3019ACFCB017B
:101900000E94AF0A7C01009749F0AE01B8010E9425
:10191000910CC8010E944B0B870153CF10E000E0EF
:1019200050CFFB01DC0102C001900D9241505040AC
:10193000D8F70895FB01DC018D9101908019011009
:10194000D9F3990B0895FB01DC0101900D92002061
:10195000E1F7089510E0CDE5D0E004C0FE010E945B
:0E196000A90A2196CE35D107C9F7F894FFCF1A
:10196E006A026A020000F0028000000000005A01C4
:10197E00BA00E700A7011801F6000A0100000000F6
:10198E00BE03BA006B02B9000D0A00437A79746E79
:10199E00696B20454C4D333237004E6120417264E5
:1019AE0075696E6F0020202020202020202020200E
:1019BE0020202020202020202000436F6E6E6563A3
:1019CE0074696E672E2E2E2E2E2E20202020004182
:1019DE00545A00454C4D33323720545A2020202083
:1019EE000057656C636F6D6500436F6E6E65637453
:1019FE00696F6E204F4B20202020202020202000B9
:101A0E003031303000496E697469616C7A696E6785
:101A1E002E2E2E2E2E00496E697469616C697A65C0
:101A2E00642E2E2E2E2E004572726F7220202020D4
:101A3E00202020202020202020004E6F20436F6E7B
:101A4E006E656374696F6E21202020202020202077
:101A5E002000436F6F6C616E742054656D70202092
:101A6E00202000303130350020432020202020203F
:081A7E002020202020200000A0
:00000001FF
