:020000040000FA
:100000000C945E000C9452070C942B070C94860001
:100010000C9486000C9486000C9486000C94860048
:100020000C9486000C9486000C9486000C94860038
:100030000C9486000C9486000C9486000C94860028
:100040000C94E1060C9486000C94AF060C9489067F
:100050000C9486000C9486000C9486000C94860008
:100060000C9486000C948600000000080002010039
:100070000003040700000000000000000000000072
:10008000250028002B0000000000240027002A0083
:10009000040404040404040402020202020203032E
:1000A0000303030301020408102040800102040836
:1000B00010200102040810207907250B11241FBE0F
:1000C000CFEFD8E0DEBFCDBF23E0AAEAB2E001C0A7
:1000D0001D92A639B207E1F712E0A0E0B1E0E2E933
:1000E000FEE102C005900D92AA3AB107D9F710E0DF
:1000F000CDE5D0E004C02197FE010E943B0DCC3538
:10010000D107C9F70E94D3070C943C0F0C94000050
:1001100090E0FC01EC55FF4F249180579F4FFC016C
:100120008491882399F090E0880F991FFC01EA5789
:10013000FF4FA591B491FC01E458FF4F8591949134
:100140008FB7F894EC91E22BEC938FBF08950F9347
:100150001F938091BF029091C002A091C102B09103
:10016000C2024091AA025091AB026091AC02709120
:10017000AD028C019D01041B150B260B370BB90139
:10018000A8014436510561057105D0F08093AA029B
:100190009093AB02A093AC02B093AD0281E090E0EB
:1001A0009093BC028093BB028091BD029091BE02ED
:1001B0008430910544F401969093BE028093BD0271
:1001C0001F910F9108951092BE021092BD02F8CFB8
:1001D0000895AF92BF92CF92DF92EF92FF920F936A
:1001E0001F93CF93DF936C017B018B01040F151FCD
:1001F000EB015E01AE18BF08C017D10759F0699135
:10020000D601ED91FC910190F081E02DC601099598
:10021000892B79F7C501DF91CF911F910F91FF9045
:10022000EF90DF90CF90BF90AF900895ECE6F3E0B1
:10023000448155816081718188E793E00C94E900E5
:10024000FC01538D448D252F30E0842F90E0821BDC
:10025000930B541710F0CF96089501970895FC0161
:10026000918D828D981761F0A28DAE0FBF2FB11DB9
:100270005D968C91928D9F5F9F73928F90E0089511
:100280008FEF9FEF0895FC01918D828D981731F0CB
:10029000828DE80FF11D858D90E008958FEF9FEF1F
:1002A0000895FC01918D228D892F90E0805C9F4FF5
:1002B000821B91098F739927089583EC92E00E9425
:1002C000510121E0892B09F420E0822F089580E07C
:1002D00090E0892B29F00E945D0181110C940000AF
:1002E0000895FC01A48DA80FB92FB11DA35ABF4FCB
:1002F0002C91848D90E001968F739927848FA68925
:10030000B7892C93A089B1898C91837080648C9378
:10031000938D848D981306C00288F389E02D808127
:100320008F7D80830895EF92FF920F931F93CF9359
:10033000DF93EC0181E0888F9B8D8C8D98131AC020
:10034000E889F989808185FF15C09FB7F894EE8907
:10035000FF896083E889F989808183708064808364
:100360009FBF81E090E0DF91CF911F910F91FF90AF
:10037000EF900895F62E0B8D10E00F5F1F4F0F7357
:100380001127E02E8C8D8E110CC00FB607FCFACF12
:10039000E889F989808185FFF5CFCE010E9471013E
:1003A000F1CFEB8DEC0FFD2FF11DE35AFF4FF082E3
:1003B0009FB7F8940B8FEA89FB8980818062CFCF49
:1003C000CF93DF93EC01888D8823B9F0AA89BB898C
:1003D000E889F9898C9185FD03C0808186FD0DC077
:1003E0000FB607FCF7CF8C9185FFF2CF808185FF98
:1003F000EDCFCE010E947101E9CFDF91CF91089539
:1004000090E0FC01E859FF4F2491FC01EC55FF4FAF
:100410003491FC01E057FF4FE491EE23C9F0222311
:1004200039F0233001F1A8F4213019F1223029F1FB
:10043000F0E0EE0FFF1FE458FF4FA591B4918FB786
:10044000F894EC91611126C030953E233C938FBF08
:1004500008952730A9F02830C9F0243049F7809159
:1004600080008F7D03C0809180008F778093800013
:10047000DFCF84B58F7784BDDBCF84B58F7DFBCF95
:100480008091B0008F778093B000D2CF8091B00080
:100490008F7DF9CF3E2BDACF3FB7F8948091AF0232
:1004A0009091B002A091B102B091B20226B5A89B82
:1004B00005C02F3F19F00196A11DB11D3FBFBA2FF6
:1004C000A92F982F8827BC01CD01620F711D811DB6
:1004D000911D42E0660F771F881F991F4A95D1F73B
:1004E00008958F929F92AF92BF92CF92DF92EF9238
:1004F000FF924B015C010E944C026B017C010E9447
:100500004C026C197D098E099F09683E7340810574
:100510009105A8F321E0821A9108A108B10888EE9C
:10052000C80E83E0D81EE11CF11C81149104A104C3
:10053000B10429F7FF90EF90DF90CF90BF90AF907C
:100540009F908F900895089590E080E00895CF9354
:10055000DF93EC0160E08E810E94000261E08E81F9
:100560000E94000260E08E810E9400028BE891E010
:100570000197F1F7DF91CF910895CF92DF92EF923B
:10058000FF920F931F93CF93DF936C017C0187E061
:10059000E80EF11CD0E0C0E0062F10E0B8010C2EF0
:1005A00002C0759567950A94E2F76170F701819131
:1005B0007F010E9400022196C430D10579F7C6015F
:1005C000DF91CF911F910F91FF90EF90DF90CF902F
:1005D0000C94A702CF92DF92EF92FF920F931F939A
:1005E000CF93DF93EC01F62E642F8C810E940002E2
:1005F0008D818F3F19F060E00E9400020F2D10E006
:100600008F8584FF25C06E0187E0C80ED11CF12CB8
:10061000E12CB8010E2C02C0759567950A94E2F79B
:100620006170F60181916F010E940002FFEFEF1AE5
:10063000FF0A88E0E816F10461F7CE01DF91CF915F
:100640001F910F91FF90EF90DF90CF900C94A70235
:10065000B80184E0759567958A95E1F7CE010E940F
:10066000BD026F2DCE01DF91CF911F910F91FF90B1
:10067000EF90DF90CF900C94BD0240E0682F88E7A8
:1006800093E00C94EA0281E00E943D038BE39FE13A
:100690000197F1F70895CF93DF93823029F4909179
:1006A000870398609093870380938B0310928C0349
:1006B00080E480938D0380E180938E0380E58093B6
:1006C0008F0380917C030E94880080917D038F3F7F
:1006D00011F00E94880080917E030E948800C8E784
:1006E000D3E09E01285733408091870384FD0AC0E0
:1006F00084E090E02196281739073CF48E810E940F
:100700008800EFCF88E090E0F5CF8BE39DE0019784
:10071000F1F760E080917C030E94000260E080912C
:100720007E030E94000280917D038F3F19F060E0FC
:100730000E9400028091870384FD34C063E088E753
:1007400093E00E94BD02CBE4D6E4CE010197F1F71D
:1007500063E088E793E00E94BD022197F1F763E030
:1007600088E793E00E94BD0283E592E00197F1F7EC
:1007700062E088E793E00E94BD0280918703806277
:100780000E943D0384E0809388038CE00E943D0337
:100790000E94430382E08093890386E0DF91CF913A
:1007A0000C943D0380620E943D038BE496E4019724
:1007B000F1F78091870380620E943D0383E592E018
:1007C0000197F1F78091870380620E943D03D5CFA6
:1007D00090918B03691710F06FEF690FE62FF0E02F
:1007E000E858FC4F9489890F80680C943D0341E0E0
:1007F0000E94EA0281E090E00895FB010190002050
:10080000E9F73197AF01461B570BDC01ED91FC91E5
:100810000280F381E02D0994BC0188E793E00C94F9
:10082000FD0361E080E00E94E8038DE691E00C9416
:100830000C04CF93DF93BC0183EC92E00E94FD0394
:10084000EC0168E271E083EC92E00E94FD038C0F02
:100850009D1FDF91CF9108950F931F93CF93DF9347
:100860008C01EB01FC01808191810097E1F06881AE
:10087000798161157105A9F0428153812C813D81F7
:100880004217530770F00E94350F8C819D81F8014B
:10089000958384831D821C82DF91CF911F910F91DC
:1008A00008950E94DD0D88819981F80191838083EC
:1008B0008A819B81938382838C819D8195838483AC
:1008C000198218821B821A82E5CFCF93DF93EC0145
:1008D00088819981009711F00E94DD0D198218829C
:1008E0001D821C821B821A82DF91CF910895FC0128
:1008F00080819181009711F00C94DD0D08950F9384
:100900001F93CF93DF93EC0188819981009759F071
:100910002A813B812617370730F081E0DF91CF91A4
:100920001F910F9108958B016F5F7F4F0E94660E9C
:10093000009759F0998388831B830A832C813D811A
:10094000232B59F7FC011082E8CF80E0E7CFEF922C
:10095000FF920F931F93CF93DF9341155105B1F091
:100960007B01EC010C811D81040F151FB8010E9451
:100970007F04882361F0288139818C819D81B701B2
:10098000820F931F0E94350F1D830C8381E0DF913E
:10099000CF911F910F91FF90EF900895CF93DF9328
:1009A000EC01FB0101900020E9F73197AF01461BF4
:1009B000570B0E94A704811103C0CE010E94650459
:1009C000CE01DF91CF910895EF92FF920F931F9385
:1009D000CF93DF93EC017B018A01BA010E947F046F
:1009E00081110BC0CE010E946504CE01DF91CF9131
:1009F0001F910F91FF90EF9008951D830C83B70115
:100A0000888199810E94350FF0CFFC0111821082FC
:100A1000138212821582148250E040E06AE271E093
:100A20000C94E404FB0101900020E9F73197AF0139
:100A3000461B570B0C94E404CF92DF92EF92FF9287
:100A40000F931F93CF93DF936C017B018A014617AD
:100A5000570720F48F2D7A01062F182FC6010E9408
:100A60000505C0917603D0917703EC16FD06F8F4E6
:100A70000C171D0708F4E801E0917203F09173036D
:100A8000EC0FFD1F1081108260917203709173034F
:100A90006E0D7F1DC6016115710599F00E9412054A
:100AA0008091720390917303C80FD91F1883C601F8
:100AB000DF91CF911F910F91FF90EF90DF90CF903A
:100AC00008950E946504ECCF0F931F93CF93DF939B
:100AD000CDB7DEB7A2970FB6F894DEBF0FBECDBF7D
:100AE0008C01CB01BA01F8011182108213821282AB
:100AF000158214822AE0AE014F5F5F4F0E94550CB1
:100B0000BE016F5F7F4FC8010E941205A2960FB60B
:100B1000F894DEBF0FBECDBFDF91CF911F910F9133
:100B20000895CF93DF93EC01FB018617970749F0F7
:100B3000608171816115710541F0448155810E9488
:100B4000E404CE01DF91CF9108950E946504F9CFAE
:100B5000FC011182108213821282158214820C947D
:100B600091051F93CF93DF93CDB7DEB728970FB6CC
:100B7000F894DEBF0FBECDBF6AE271E082E793E07A
:100B80000E94120583EC92E00E945101181619068A
:100B900044F583EC92E00E942F01182F62E773E086
:100BA000CE0101960E94A8051F83188641E050E0FF
:100BB000BE01695F7F4FCE0101960E94A70481119B
:100BC00004C0CE0101960E946504BE016F5F7F4F95
:100BD00082E793E00E949105CE0101960E9477047E
:100BE000D1CF28960FB6F894DEBF0FBECDBFDF91F0
:100BF000CF911F910895CF93DF93CDB7DEB72C9798
:100C00000FB6F894DEBF0FBECDBF60E080E00E945B
:100C1000E8038BE291E00E940C048091BB0290916A
:100C2000BC02892B31F00E9411041092BC02109278
:100C3000BB026AE271E082E793E00E9412058BE357
:100C400091E00E94190468EE73E080E090E00E9459
:100C500071020E94B1054DE050E06BE070E0CE0102
:100C600001960E941C05BE016F5F7F4F86E693E0F0
:100C70000E942C04CE0101960E94770440E150E0CE
:100C800070E060E080916603909167030E94350BED
:100C90006093B7027093B8028093B9029093BA023E
:100CA000AB01BC014852510961097109CE0101969D
:100CB0000E946405BE016F5F7F4FCE0107960E94C0
:100CC000A80560E471E0CE0107960E94CE04BC0145
:100CD0008CE693E00E949105CE0107960E9477046E
:100CE000CE0101960E94770461E080E00E94E80353
:100CF0000E94160164EF71E080E090E00E947102B2
:100D00002C960FB6F894DEBF0FBECDBFDF91CF910A
:100D100008951F920F920FB60F9211242F933F93B5
:100D20004F935F936F937F938F939F93AF93BF93F3
:100D3000EF93FF9383EC92E00E947101FF91EF919A
:100D4000BF91AF919F918F917F916F915F914F91E3
:100D50003F912F910F900FBE0F901F9018951F92EB
:100D60000F920FB60F9211242F938F939F93EF93AF
:100D7000FF93E091D302F091D4028081E091D902F7
:100D8000F091DA0282FD1BC090818091DC028F5FBE
:100D90008F732091DD02821741F0E091DC02F0E0D8
:100DA000ED53FD4F958F8093DC02FF91EF919F9162
:100DB0008F912F910F900FBE0F901F9018958081EB
:100DC000F4CF1F920F920FB60F9211242F933F93DF
:100DD0008F939F93AF93BF938091B3029091B4028E
:100DE000A091B502B091B6023091AE0223E0230F7C
:100DF0002D3758F50196A11DB11D2093AE028093A9
:100E0000B3029093B402A093B502B093B60280915E
:100E1000AF029091B002A091B102B091B2020196DE
:100E2000A11DB11D8093AF029093B002A093B102B7
:100E3000B093B202BF91AF919F918F913F912F914B
:100E40000F900FBE0F901F90189526E8230F029663
:100E5000A11DB11DD2CF1F920F920FB60F92112478
:100E60002F933F934F935F936F937F938F939F93B2
:100E7000AF93BF93EF93FF93E0910201F0910301D1
:100E80000995FF91EF91BF91AF919F918F917F91C4
:100E90006F915F914F913F912F910F900FBE0F90E7
:100EA0001F9018951F920F920FB60F9211242F9337
:100EB0003F934F935F936F937F938F939F93AF93E2
:100EC000BF93EF93FF93E0910001F0910101099529
:100ED000FF91EF91BF91AF919F918F917F916F9112
:100EE0005F914F913F912F910F900FBE0F901F90E8
:100EF0001895E3ECF2E01382128288EE93E0A0E012
:100F0000B0E084839583A683B7838EE091E09183DC
:100F1000808385EC90E09587848784EC90E09787C8
:100F2000868780EC90E0918B808B81EC90E0938BB6
:100F3000828B82EC90E0958B848B86EC90E0978B93
:100F4000868B118E128E138E148EE8E7F3E01382D7
:100F5000128280E291E09183808383E084838FEF2B
:100F6000858384E0868385E0878386E0808787E0C9
:100F7000818788E0828713861486158616861786F1
:100F800081E00E944B0382E793E00E9405058CE616
:100F900093E00E94050586E693E00E94050580E641
:100FA00093E00C940505CF93DF93CDB7DEB72C9774
:100FB0000FB6F894DEBF0FBECDBF789484B58260C3
:100FC00084BD84B5816084BD85B5826085BD85B5ED
:100FD000816085BD80916E00816080936E0010926B
:100FE00081008091810082608093810080918100E6
:100FF0008160809381008091800081608093800077
:101000008091B10084608093B1008091B0008160D4
:101010008093B00080917A00846080937A00809100
:101020007A00826080937A0080917A008160809358
:101030007A0080917A00806880937A001092C100D3
:1010400087EA90E09093010180930001809169000C
:10105000836080936900E89A82E00E944B0360E01D
:1010600080E00E94E8038FE491E00E940C0461E0BC
:1010700080E00E94E8038EE591E00E940C0460EDA0
:1010800077E080E090E00E9471020E94430302E05A
:1010900033E3F32E46E0E42E60E080E00E94E803B4
:1010A00089E691E00E940C0461E080E00E94E80380
:1010B0008EE791E00E940C04E091D302F091D402FB
:1010C0000083E091CF02F091D0021082E091D10232
:1010D000F091D202F0821092DB02E091D702F091FF
:1010E000D802E082E091D502F091D6028081806141
:1010F0008083E091D502F091D60280818860808360
:10110000E091D502F091D602808180688083E091E1
:10111000D502F091D60280818F7D808383E991E0B2
:101120000E94190460E080E00E94E80387E991E0F2
:101130000E940C0460ED77E080E090E00E94710274
:101140000E94B10543E050E061E070E0CE010196FD
:101150000E941C058D819E81892B49F064E971E014
:1011600089819A810E942C0F11E0892B09F010E0EF
:10117000CE0101960E947704112309F47AC00E94DF
:10118000430360E080E00E94E80385EA91E00E946A
:101190000C0460E089E00E94E80361E080E00E94C6
:1011A000E80386EB91E00E940C046CED75E080E0B2
:1011B00090E00E9471020E9443038DEC91E00E9436
:1011C000190460E080E00E94E80382ED91E00E9453
:1011D0000C0460EA7FE080E090E00E9471020E94CF
:1011E000B10560E080E00E94E80383EE91E00E9498
:1011F0000C0468EE73E080E090E00E9471020E94AF
:10120000430384E0C82ED12CE12CF12C812C912CAD
:1012100054018A9424E6722E00E010E02FB7F8946F
:101220008091B3029091B402A091B502B091B60240
:101230002FBF8093BF029093C002A093C102B093CE
:10124000C2028091BD029091BE028230910509F4E4
:1012500011C144F5019709F491C00E94FB050115E5
:101260001105E1F20E945D018823C1F20E94000095
:10127000D5CF60E080E00E94E80384EF91E00E9417
:101280000C0461E080E00E94E80387E092E00E94A5
:101290000C046CED75E080E090E00E9471020E9409
:1012A0004303FACE8330910509F474C10497A9F67B
:1012B00060E080E00E94E80385E892E00E940C0470
:1012C0008091BB029091BC02892B31F00E941104E5
:1012D0001092BC021092BB026AE271E082E793E0D6
:1012E0000E94120585E992E00E94190468EE73E0FD
:1012F00080E090E00E9471020E94B10547E050E05A
:1013000065E070E0CE0101960E941C05BE016F5F92
:101310007F4F86E693E00E942C04CE0101960E9446
:10132000770440E150E070E060E0809166039091C6
:1013300067030E94350B6093B7027093B8028093E5
:10134000B9029093BA02A50194010E941C0D729EED
:10135000C001739E900D1124AC01990F660B770BA1
:10136000CE0107960E946405BE01695F7F4FCE01E2
:1013700001960E94A8056AE972E05EC060E080E024
:101380000E94E8038FE192E00E940C048091BB026E
:101390009091BC02892B31F00E9411041092BC0282
:1013A0001092BB026AE271E082E793E00E941205AC
:1013B00080E392E00E94190468EE73E080E090E020
:1013C0000E9471020E94B10547E050E065E070E0C4
:1013D000CE0101960E941C05BE016F5F7F4F86E61D
:1013E00093E00E942C04CE0101960E94770440E114
:1013F00050E070E060E080916603909167030E9486
:10140000350B6093B7027093B8028093B902909342
:10141000BA02AB01BC014852510961097109CE0100
:1014200007960E946405BE01695F7F4FCE01019659
:101430000E94A80560E471E0CE0101960E94CE04EE
:10144000BC018CE693E00E949105CE0101960E94BA
:101450007704CE0107960E94770461E080E00E9445
:10146000E8030E94160164EF71E080E090E00E94C2
:101470007102F5CE60E080E00E94E80385E392E02F
:101480000E940C048091BB029091BC02892B31F028
:101490000E9411041092BC021092BB026AE271E039
:1014A00082E793E00E94120586E492E00E9419040C
:1014B00068EE73E080E090E00E9471020E94B10546
:1014C00041E150E06FE070E0CE0101960E941C0502
:1014D000BE016F5F7F4F86E693E00E942C04CE0131
:1014E00001960E9477044FE050E06DE070E0CE017D
:1014F00001960E941C05BE016F5F7F4F80E693E05E
:101500000E942C04CE0101960E94770442E050E034
:101510006FEC71E080E693E00E94A70440E150E0A8
:1015200070E060E080916603909167030E94350B44
:101530006093B7027093B8028093B9029093BA0295
:1015400040E150E070E060E08091600390916103C1
:101550000E94350B2091B7023091B8024091B90238
:101560005091BA02620F731F841F951FA701960145
:101570000E941C0DBA01A901CE0107960E946405C4
:10158000BE01695F7F4FCE0101960E94A8056BE402
:1015900072E052CF60E080E00E94E8038DE592E0C7
:1015A0000E940C048091BB029091BC02892B31F007
:1015B0000E9411041092BC021092BB026AE271E018
:1015C00082E793E00E9412058EE692E00E941904E1
:1015D00068EE73E080E090E00E9471020E94B10525
:1015E0004DE050E06BE070E0CE0101960E941C05DA
:1015F000BE016F5F7F4F86E693E00E942C04CE0110
:1016000001960E94770440E150E070E060E0809134
:101610006603909167030E94350BAB01BC014093B8
:10162000B7025093B8026093B9027093BA02CE0128
:1016300007960E946405BE01695F7F4FCE01019647
:101640000E94A80563E772E0F7CE80E693E00E946F
:10165000770486E693E00E9477048CE693E00E948C
:10166000770482E793E00C947704B0E0A0E0EBE32A
:10167000FBE00C94D70C5C016B017A0161157105DC
:1016800019F0FB0191838083E114F10451F0C7014B
:101690000297839730F040E030E020E090E072C0A5
:1016A0005E01E5012196F5011081812F90E00E94F5
:1016B0004C0C892BA9F71D3201F52196F5011181FA
:1016C00001E0E114F10409F4DAC0F0E1EF16F104ED
:1016D00009F082C0103359F488818F7D883509F074
:1016E00076C0198122960260F0E1EF2EF12C812C58
:1016F000912CA12C88E0B82E8CC01B3221F4E5017E
:101700002296F501118100E0DCCFEAE0EE16F1044B
:1017100009F4BBC0F0E1EF16F10409F06DC0E7CFAA
:1017200078E0E72EF12C812C912CA12C60E1B62ED3
:1017300070C03FE9310F3A3128F439EA332E80C0C6
:1017400021E09AC0302F3170C114D10431F022232E
:1017500009F12197F601D183C08327FF21C060E002
:1017600070E080E090E8311104C06FEF7FEF8FEF01
:101770009FE722E230E03093910320939003462FBD
:10178000372F282F642F732F822FCDB7DEB7E1E1DB
:101790000C94F30C01FF04C02297F601D183C0839F
:1017A000332341F090958095709561957F4F8F4FD1
:1017B0009F4FE5CF97FFE3CF82E290E090939103B4
:1017C000809390036FEF7FEF8FEF9FE7D8CF10E309
:1017D000E114F10409F4A4CF28E0E216F10409F4BD
:1017E000A2CF0CF092CF812C912CA12CE0E4BE2E44
:1017F00082E0E816F10469F060E070E080E090E8D3
:1018000097010F2C000C440B550B0E94A90C4901A9
:101810005A0120E060E070E0CB0127010F2C000CA2
:1018200066087708FE0150ED352E310E39E033158C
:1018300040F43FEB310F3A3108F07BCF49EC342EC6
:10184000310E3E141F040CF07DCF27FD15C0861607
:101850009706A806B90678F0A30192010E94990C98
:10186000630D711D811D911D61307105810520E899
:10187000920708F465CF2FEF21961081D3CF103354
:1018800009F42ACF2AE0E22EF12C9CEC892E982C28
:10189000A82C9CE0B92EBDCF91110C94860C8032FF
:1018A00019F089508550C8F70895BB272A3051F4A4
:1018B000992342F4BDE290958095709561957F4F94
:1018C0008F4F9F4F0C94650CBB27FA01A62F621710
:1018D000710581059105330B30FB66F0AA27660F71
:1018E000771F881F991FAA1FA21710F0A21B6395CC
:1018F0003850A9F7A05DAA3308F0A95DA19336F787
:10190000B111B1931082CA010C94890C99278827D0
:101910000895DC01FC01672F71917723E1F732977D
:1019200004C07C916D9370836291AE17BF07C8F3BA
:101930000895DB018F939F930E94CB0CBF91AF91D1
:10194000A29F800D911DA39F900DB29F900D112419
:101950000895A1E21A2EAA1BBB1BFD010DC0AA1FF0
:10196000BB1FEE1FFF1FA217B307E407F50720F008
:10197000A21BB30BE40BF50B661F771F881F991F83
:101980001A9469F760957095809590959B01AC01CC
:10199000BD01CF0108950E940D0DA59F900DB49F2C
:1019A000900DA49F800D911D112408952F923F92B8
:1019B0004F925F926F927F928F929F92AF92BF925F
:1019C000CF92DF92EF92FF920F931F93CF93DF930B
:1019D000CDB7DEB7CA1BDB0B0FB6F894DEBF0FBE68
:1019E000CDBF09942A88398848885F846E847D84B5
:1019F0008C849B84AA84B984C884DF80EE80FD80B7
:101A00000C811B81AA81B981CE0FD11D0FB6F8942C
:101A1000DEBF0FBECDBFED010895A29FB001B39F01
:101A2000C001A39F700D811D1124911DB29F700DE7
:101A3000811D1124911D0895052E97FB1EF400941D
:101A40000E94330D57FD07D00E94A90C07FC03D05C
:101A50004EF40C94330D50954095309521953F4FA1
:101A60004F4F5F4F089590958095709561957F4F8A
:101A70008F4F9F4F0895EE0FFF1F0590F491E02DBB
:101A800009940F931F93CF93DF938230910510F445
:101A900082E090E0E0919403F091950330E020E043
:101AA000B0E0A0E0309799F42115310509F44AC05F
:101AB000281B390B24303105D8F58A819B816115AB
:101AC000710589F1FB0193838283FE0111C040817E
:101AD00051810281138148175907E0F048175907CF
:101AE00099F4109761F012960C93129713961C9329
:101AF0003296CF01DF91CF911F910F9108950093FE
:101B0000940310939503F4CF2115310551F042173A
:101B1000530738F0A901DB019A01BD01DF01F8018B
:101B2000C1CFEF01F9CF9093950380939403CDCF6C
:101B3000FE01E20FF31F8193919322503109398303
:101B40002883D7CF2091920330919303232B41F424
:101B50002091060130910701309393032093920363
:101B600020910401309105012115310541F42DB773
:101B70003EB74091080150910901241B350BE091BB
:101B80009203F0919303E217F307A0F42E1B3F0B8F
:101B90002817390778F0AC014E5F5F4F24173507DF
:101BA00048F04E0F5F1F509393034093920381932D
:101BB00091939FCFF0E0E0E09CCFCF93DF9300972D
:101BC000E9F0FC01329713821282A0919403B09144
:101BD0009503ED0130E020E01097A1F420813181E0
:101BE000820F931F20919203309193032817390796
:101BF00009F061C0F0939303E0939203DF91CF91DA
:101C00000895EA01CE17DF07E8F54A815B819E015E
:101C100041155105B1F7E901FB83EA8349915991D7
:101C2000C40FD51FEC17FD0761F4808191810296E6
:101C3000840F951FE90199838883828193819B8317
:101C40008A83F0E0E0E012968D919C9113970097C3
:101C5000B9F52D913C911197CD010296820F931FFA
:101C600020919203309193032817390739F6309762
:101C700051F51092950310929403B0939303A0939F
:101C80009203BCCFD383C28340815181840F951FBF
:101C9000C817D90761F44E5F5F4F88819981480F5B
:101CA000591F518340838A819B81938382832115AD
:101CB000310509F0B0CFF0939503E09394039ECFE4
:101CC000FD01DC01C0CF13821282D7CFB0E0A0E0CB
:101CD000ECE6FEE00C94D80C8C01009751F4CB019B
:101CE0000E94410D8C01C801CDB7DEB7E0E10C9434
:101CF000F40CFC01E60FF71F9C0122503109E2179A
:101D0000F30708F49DC0D901CD91DC911197C61756
:101D1000D70798F0C530D10530F3CE010497861768
:101D2000970708F3C61BD70B2297C193D1936D93E6
:101D30007C93CF010E94DD0DD6CF5B01AC1ABD0AAA
:101D40004C018C0E9D1EA0919403B0919503512CD3
:101D5000412CF12CE12C109731F580919203909158
:101D600093038815990509F05CC04616570608F0DC
:101D700058C08091040190910501009741F48DB7FE
:101D80009EB74091080150910901841B950BE817FB
:101D9000F90708F055C0F0939303E0939203F9011B
:101DA00071836083A0CF8D919C91119712966C9056
:101DB000129713967C901397A815B90559F56C01E5
:101DC00042E0C40ED11CCA14DB0420F1AC014A1954
:101DD0005B09DA011296159780F062827382518353
:101DE0004083D9016D937C93E114F10471F0D70124
:101DF0001396FC93EE93129776CF22968C0F9D1F2D
:101E0000F90191838083F301EFCFF0939503E09381
:101E1000940369CF4816590608F42C017D01D301BB
:101E20009ACFCB010E94410D7C01009749F0AE0191
:101E3000B8010E94230FC8010E94DD0D870153CF16
:101E400010E000E050CFFB01DC0102C001900D92D8
:101E500041505040D8F70895FB01DC018D9101906D
:101E600080190110D9F3990B0895FB01DC01019051
:101E70000D920020E1F7089510E0CDE5D0E004C018
:101E8000FE010E943B0D2196CE35D107C9F7F8948B
:101E9000FFCFA302A3020000960380000000000011
:101EA0009301E9002001E00151012F0143010000ED
:101EB0000000F703E900A402E8000D0A00436F6F79
:101EC0006C616E742054656D7020202000303130BC
:101ED00035002043202020202020202020202020EA
:101EE00000437A79746E696B20454C4D333237006C
:101EF0004E612041726475696E6F002020202020A1
:101F000020202020202020202020202020202000F1
:101F1000436F6E6E656374696E672E2E2E2E2E2EA5
:101F2000202020200041545A00454C4D33323720A8
:101F30004254202020200057656C636F6D6520207F
:101F40002020202020202000436F6E6E656374697E
:101F50006F6E204F4B20202020202020202000309A
:101F600031303000496E697469616C7A696E672E30
:101F70002E2E2E2E00496E697469616C697A656433
:101F80002E2E2E2E2E004572726F722020202020C1
:101F90002020202020202020004E6F20436F6E6ED6
:101FA000656374696F6E212020202020202020206E
:101FB00000496E7075742054656D702020202020BB
:101FC00020003031304600456E67696E6520525002
:101FD0004D2020202020200030313043002020528E
:101FE000504D202020202020202020202020004391
:101FF000617220537065656420202020202020001D
:102000003031304400206B6D2F68202020202020AC
:1020100020202020202000456E67696E65204C6FCF
:102020006164202020200030313034002025202021
:0C20300020202020202020202020000064
:107E0000112484B714BE81FFF0D085E080938100F7
:107E100082E08093C00088E18093C10086E0809377
:107E2000C20080E18093C4008EE0C9D0259A86E02C
:107E300020E33CEF91E0309385002093840096BBD3
:107E4000B09BFECF1D9AA8958150A9F7CC24DD24C4
:107E500088248394B5E0AB2EA1E19A2EF3E0BF2EE7
:107E6000A2D0813461F49FD0082FAFD0023811F036
:107E7000013811F484E001C083E08DD089C08234E0
:107E800011F484E103C0853419F485E0A6D080C0E4
:107E9000853579F488D0E82EFF2485D0082F10E0AE
:107EA000102F00270E291F29000F111F8ED06801E7
:107EB0006FC0863521F484E090D080E0DECF843638
:107EC00009F040C070D06FD0082F6DD080E0C81688
:107ED00080E7D80618F4F601B7BEE895C0E0D1E017
:107EE00062D089930C17E1F7F0E0CF16F0E7DF06D8
:107EF00018F0F601B7BEE89568D007B600FCFDCFD4
:107F0000A601A0E0B1E02C9130E011968C91119780
:107F100090E0982F8827822B932B1296FA010C0160
:107F200087BEE89511244E5F5F4FF1E0A038BF0790
:107F300051F7F601A7BEE89507B600FCFDCF97BE46
:107F4000E89526C08437B1F42ED02DD0F82E2BD052
:107F50003CD0F601EF2C8F010F5F1F4F84911BD097
:107F6000EA94F801C1F70894C11CD11CFA94CF0C13
:107F7000D11C0EC0853739F428D08EE10CD085E9AC
:107F80000AD08FE07ACF813511F488E018D01DD067
:107F900080E101D065CF982F8091C00085FFFCCF94
:107FA0009093C60008958091C00087FFFCCF809118
:107FB000C00084FD01C0A8958091C6000895E0E648
:107FC000F0E098E1908380830895EDDF803219F02E
:107FD00088E0F5DFFFCF84E1DECF1F93182FE3DFCA
:107FE0001150E9F7F2DF1F91089580E0E8DFEE27F6
:047FF000FF270994CA
:027FFE00040479
:00000001FF
